:0400000007EF00F016
:0A0008006E820BED08F0E8EF0EF039
:10100000003738392F3435362A3132332D23303DED
:051010002B2569000022
:101016000600FACF50F0FBCF51F0D9CF52F0DACF1D
:1010260053F0F3CF54F0F4CF55F0F2A81DEF08F0CB
:101036001FEF08F028EF08F0F2A224EF08F026EFE1
:1010460008F028EF08F086EC10F0F0A62DEF08F077
:101056002FEF08F038EF08F0F0A034EF08F036EF85
:1010660008F038EF08F084EC10F0F0A83DEF08F037
:101076003FEF08F048EF08F0F0A244EF08F046EF23
:1010860008F048EF08F082EC10F0F2A64DEF08F0F9
:101096004FEF08F06AEF08F0F2A054EF08F056EFB1
:1010A60008F06AEF08F081A85BEF08F05DEF08F042
:1010B6006AEF08F06604D8A463EF08F065EF08F05D
:1010C6006AEF08F0000E666E000E4FEC10F0F2A606
:1010D6006FEF08F071EF08F08CEF08F0F2A076EFF2
:1010E60008F078EF08F08CEF08F081B87DEF08F093
:1010F6007FEF08F08CEF08F06650D8A485EF08F073
:1011060087EF08F08CEF08F0010E666E010E4FECCB
:1011160010F0F2A691EF08F093EF08F0AEEF08F0AA
:10112600F2A098EF08F09AEF08F0AEEF08F081AA67
:101136009FEF08F0A1EF08F0AEEF08F06504D8A421
:10114600A7EF08F0A9EF08F0AEEF08F0000E656E05
:10115600000E42EC10F0F2A6B3EF08F0B5EF08F07F
:10116600D0EF08F0F2A0BAEF08F0BCEF08F0D0EF2D
:1011760008F081BAC1EF08F0C3EF08F0D0EF08F02D
:101186006550D8A4C9EF08F0CBEF08F0D0EF08F00F
:10119600010E656E010E42EC10F0F2A6D5EF08F0D6
:1011A600D7EF08F0F2EF08F0F2A0DCEF08F0DEEF80
:1011B60008F0F2EF08F081ACE3EF08F0E5EF08F095
:1011C600F2EF08F06404D8A4EBEF08F0EDEF08F0B6
:1011D600F2EF08F0000E646E000E35EC10F0F2A689
:1011E600F7EF08F0F9EF08F014EF09F0F2A0FEEFC0
:1011F60008F000EF09F014EF09F081BC05EF09F0E3
:1012060007EF09F014EF09F06450D8A40DEF09F0C8
:101216000FEF09F014EF09F0010E646E010E35ECC4
:1012260010F0F2A619EF09F01BEF09F036EF09F0FE
:10123600F2A020EF09F022EF09F036EF09F081AEB7
:1012460027EF09F029EF09F036EF09F06304D8A477
:101256002FEF09F031EF09F036EF09F0000E636E5B
:10126600000E28EC10F0F2A63BEF09F03DEF09F076
:1012760058EF09F0F2A042EF09F044EF09F058EFF9
:1012860009F081BE49EF09F04BEF09F058EF09F07C
:101296006350D8A451EF09F053EF09F058EF09F065
:1012A600010E636E010E28EC10F09DAC5DEF09F0A7
:1012B6005FEF09F068EF09F09EAC64EF09F066EFA6
:1012C60009F068EF09F08CEC10F0F2AA6DEF09F066
:1012D6006FEF09F078EF09F0F2A474EF09F076EFFA
:1012E60009F078EF09F0FEEC0FF09DA07DEF09F014
:1012F6007FEF09F088EF09F09EA084EF09F086EFF2
:1013060009F088EF09F069EC10F09DA28DEF09F065
:101316008FEF09F098EF09F09EA294EF09F096EF8F
:1013260009F098EF09F075EC10F0A0A29DEF09F016
:101336009FEF09F0A8EF09F0A1A2A4EF09F0A6EF2C
:1013460009F0A8EF09F063EC10F09DA8ADEF09F0E5
:10135600AFEF09F0B8EF09F09EA8B4EF09F0B6EFC9
:1013660009F0B8EF09F07CEC10F09DAABDEF09F08A
:10137600BFEF09F0C8EF09F09EAAC4EF09F0C6EF67
:1013860009F0C8EF09F08EEC10F09DA6CDEF09F03C
:10139600CFEF09F0D8EF09F09EA6D4EF09F0D6EF0B
:1013A60009F0D8EF09F07EEC10F0A0A6DDEF09F009
:1013B600DFEF09F0E8EF09F0A1A6E4EF09F0E6EFA8
:1013C60009F0E8EF09F080EC10F09DA4EDEF09F0CC
:1013D600EFEF09F0F8EF09F09EA4F4EF09F0F6EF4D
:1013E60009F0F8EF09F08AEC10F0A0A0FDEF09F083
:1013F600FFEF09F008EF0AF0A1A004EF0AF006EFEC
:101406000AF008EF0AF088EC10F055C0F4FF54C05B
:10141600F3FF53C0DAFF52C0D9FF51C0FBFF50C0E3
:10142600FAFF6E921100000E0001C36FBF51C0118A
:10143600D8A420EF0AF022EF0AF026EF0AF0000EF9
:10144600C46FBAEF0AF0BFC060F0C0C061F041ECF3
:101456000EF00001C46F010EBF25606E000EC021A4
:10146600616E41EC0EF00001C46F000EC36FC351F4
:10147600BF25C16F000EC021C26F020EC125606E6E
:10148600000EC221616E41EC0EF00001C32B070E67
:10149600C36550EF0AF052EF0AF03AEF0AF0340E45
:1014A6000001C16FF10EE82EFED7C12FFCD700D088
:1014B600BFC0B6F0C0C0B7F0380E0001B86FECEC94
:1014C6000CF00D0E0001C16FFB0EE82EFED7C12FEA
:1014D600FCD700D0BFC0B6F0C0C0B7F0380E0001D0
:1014E600B86FECEC0CF0640EE82EFED7BFC0B6F079
:1014F600C0C0B7F0380E0001B86FECEC0CF0BFC0FE
:10150600B6F0C0C0B7F0010E0001B86FECEC0CF0FD
:10151600BFC0B6F0C0C0B7F0020E0001B86FECEC69
:101526000CF0BFC0B6F0C0C0B7F0060E0001B86F31
:10153600ECEC0CF0BFC0B6F0C0C0B7F00C0E00016A
:10154600B86FECEC0CF0BFC0B6F0C0C0B7F0380E08
:101556000001B86FECEC0CF0BFC0B6F0C0C0B7F03D
:10156600800E0001B86FECEC0CF00001C46FC451A2
:101576001200000E0001BF6FBB51BC11D8A4C6EF0C
:101586000AF0C8EF0AF0CCEF0AF0000EC06F60EF69
:101596000BF0BBC060F0BCC061F041EC0EF0000186
:1015A600C06F010EBB25606E000EBC21616E41EC62
:1015B6000EF00001C06F000EBF6FBF51BB25BD6F9F
:1015C600000EBC21BE6F020EBD25606E000EBE2150
:1015D600616E41EC0EF00001BF2B030EBF65F6EF06
:1015E6000AF0F8EF0AF0E0EF0AF0340E0001BD6FE2
:1015F600F10EE82EFED7BD2FFCD700D0BBC0B7F04A
:10160600BCC0B8F0380E0001B96FC3EC0DF00D0E7A
:101616000001BD6FFB0EE82EFED7BD2FFCD700D014
:10162600BBC0B7F0BCC0B8F0380E0001B96FC3EC50
:101636000DF0640EE82EFED7BBC0B7F0BCC0B8F004
:10164600380E0001B96FC3EC0DF0BBC0B7F0BCC0DB
:10165600B8F0010E0001B96FC3EC0DF0BBC0B7F0D6
:10166600BCC0B8F0020E0001B96FC3EC0DF0BBC0F0
:10167600B7F0BCC0B8F0060E0001B96FC3EC0DF0B0
:10168600BBC0B7F0BCC0B8F00C0E0001B96FC3EC1C
:101696000DF0BBC0B7F0BCC0B8F0280E0001B96FA2
:1016A600C3EC0DF0BBC0B7F0BCC0B8F0800E0001B3
:1016B600B96FC3EC0DF00001C06FC0511200010EEE
:1016C6005E6E56505710D8B46BEF0BF06DEF0BF003
:1016D6007EEF0BF056C0D9FF57C0DAFFDF30E83295
:1016E600E832070B586E070E58647CEF0BF07EEF5E
:1016F6000BF0E1EF0BF0000E5E6E02EF0CF056C041
:10170600D9FF57C0DAFFDF30E832E832070B586EF0
:10171600010E596E582A92EF0BF0D8905936582E72
:1017260090EF0BF05950FF0A5A6E56C0D9FF57C0BA
:10173600DAFFDF50070B5B6E5B50020D940EF3244D
:10174600D96E000EF420DA6EDECF5CF0DDCF5DF0F0
:101756005CC0D9FF5DC0DAFF5A50DF1602EF0CF00D
:1017660056C0D9FF57C0DAFFDF30E832E832070B40
:10177600586E010E596E582AC3EF0BF0D8905936A1
:10178600582EC1EF0BF056C0D9FF57C0DAFFDF5015
:10179600070B5A6E5A50020D940EF324D96E000EA2
:1017A600F420DA6EDECF5BF0DDCF5CF05BC0D9FFF4
:1017B6005CC0DAFF5950DF1202EF0CF056C0D9FFB9
:1017C60057C0DAFFDFBCEAEF0BF0EDEF0BF0010ECE
:1017D600EEEF0BF0000E586E596A5950000AD8B455
:1017E600F7EF0BF07EEF0BF05850000AD8B482EFFB
:1017F6000BF0010AD8B4B3EF0BF07EEF0BF05E509E
:101806001200010E5F6E56505710D8B40DEF0CF053
:101816000FEF0CF020EF0CF056C0D9FF57C0DAFFDF
:10182600DF30E832E832070B596E070E59641EEFB7
:101836000CF020EF0CF083EF0CF0000E5F6E98EFCB
:101846000CF056C0D9FF57C0DAFFDF30E832E83275
:10185600070B596E010E5A6E592A34EF0CF0D890C8
:101866005A36592E32EF0CF05A50FF0A5B6E56C0AC
:10187600D9FF57C0DAFFDF50070B5C6E5C50020DD4
:101886008A0EF324D96E000EF420DA6EDECF5DF0F8
:10189600DDCF5EF05DC0D9FF5EC0DAFF5B50DF16BC
:1018A60098EF0CF056C0D9FF57C0DAFFDF30E832A8
:1018B600E832070B596E010E5A6E592A65EF0CF085
:1018C600D8905A36592E63EF0CF056C0D9FF57C040
:1018D600DAFFDF50070B5B6E5B50020D8A0EF324B6
:1018E600D96E000EF420DA6EDECF5CF0DDCF5DF04F
:1018F6005CC0D9FF5DC0DAFF5A50DF1298EF0CF0DA
:101906005850596E5A6A5A50000AD8B48DEF0CF0E6
:1019160020EF0CF05950000AD8B424EF0CF0010A5D
:10192600D8B455EF0CF020EF0CF05F501200595070
:101936005A10D8A4A1EF0CF0A3EF0CF0A7EF0CF00F
:10194600000E5D6EEAEF0CF0D59E59C056F05AC0F7
:1019560057F01AEC0FF059C056F05AC057F002EC87
:101966000EF059C056F05AC057F071EC0FF020EE49
:1019760004F05950D9265A50DA22DECF5BF0DDCF7B
:101986005CF05CC05BF05C6A5B50D76E20EE04F0E6
:101996005950D9265A50DA22DF50D66E20EE04F07E
:1019A6005950D9265A50DA22DECF15F0DDCF16F07F
:1019B600F28AF29459C0D9FF5AC0DAFFDECF13F08B
:1019C600DDCF14F0F28EF28CD58E010E5D6E5D5079
:1019D6001200000E0001BE6FB651B711D8A4F6EF83
:1019E6000CF0F8EF0CF0FCEF0CF0000EBD6F37EFCB
:1019F6000DF0B6C056F0B7C057F0000E586E04ECA6
:101A06000CF0000E0001BE6FBE51B625B96F000E78
:101A1600B721BA6F020EB925566E000EBA21576E5F
:101A2600BEC0BBF0B8C0BCF0BB2B1CEF0DF0D8900D
:101A3600BC33BB2F1AEF0DF00001BC51010B586EE1
:101A460004EC0CF00001BE2B070EBE652DEF0DF069
:101A56002FEF0DF007EF0DF0B6C060F0B7C061F0E4
:101A6600C8EC0FF00001BD6FBD5112004550461085
:101A7600D8B440EF0DF042EF0DF053EF0DF045C036
:101A8600D9FF46C0DAFFDF30E832E832070B476E8F
:101A9600070E476451EF0DF053EF0DF055EF0DF0C3
:101AA60081EF0DF045C0D9FF46C0DAFFDF30E832DE
:101AB600E832070B476E010E486E472A65EF0DF0B8
:101AC600D8904836472E63EF0DF045C0D9FF46C083
:101AD600DAFFDF50070B496E4950020D8A0EF324D8
:101AE600D96E000EF420DA6EDECF4AF0DDCF4BF071
:101AF6004AC0D9FF4BC0DAFF4850DF1A1200010E68
:101B06000001BA6FB751B811D8A48CEF0DF08EEF63
:101B16000DF092EF0DF0000EBA6FC0EF0DF042C05F
:101B2600BBF0B7C0D9FFB8C0DAFFDF500F0BB96FF3
:101B3600BB51B919F80BB919BB6FB7C0D9FFB8C0FB
:101B4600DAFFDF38070BB96FB947B947B947BB5159
:101B5600B919C70BB919BB6FBB9DB7C0D9FFB8C0C0
:101B6600DAFFDFAE02D0BB8F02D00001BB9FBB0EF7
:101B7600606E000E616E41EC0EF00001BA5112006B
:101B86000001B751B811D8A4CBEF0DF0CDEF0DF091
:101B9600D1EF0DF0000EBA6F00EF0EF0B7C056F0A1
:101BA600B8C057F0000E586E04EC0CF00001BA6F86
:101BB600B7C060F0B8C061F0B9390F0B626EB3EC14
:101BC6000EF00001BA6FB7C060F0B8C061F0E3EC88
:101BD6000FF00001BA6FB7C060F0B8C061F0B9C0CD
:101BE60062F0B3EC0EF00001BA6FB7C060F0B8C097
:101BF60061F0E3EC0FF00001BA6FBA51120020EE6B
:101C060006F05650D9265750DA22DFA40DEF0EF013
:101C16000FEF0EF012EF0EF0D59A40EF0EF020EE19
:101C260006F05650D9265750DA22DFB41DEF0EF0D3
:101C36001FEF0EF040EF0EF0D58A20EE06F056505C
:101C4600D9265750DA22DFA22BEF0EF02DEF0EF039
:101C560030EF0EF0D59840EF0EF020EE06F056501D
:101C6600D9265750DA22DFB23BEF0EF03DEF0EF0E9
:101C760040EF0EF0D58840EF0EF012006050611074
:101C8600D8B448EF0EF04AEF0EF05BEF0EF060C0EE
:101C9600D9FF61C0DAFFDF30E832E832070B626E47
:101CA600070E626459EF0EF05BEF0EF060EF0EF078
:101CB600000E0001B66F78EF0EF060C056F061C0FE
:101CC60057F062EC0BF00001B66F60C056F061C0D1
:101CD60057F060C0D9FF61C0DAFF000EDFBE010E0B
:101CE600586E04EC0CF00001B66FB65112004C5061
:101CF6004D10D8A481EF0EF083EF0EF085EF0EF0B5
:101D0600B2EF0EF03FC04FF04CC0D9FF4DC0DAFF26
:101D1600DF500F0B4E6E4F504E18F80B4E184F6E8D
:101D26004CC0D9FF4DC0DAFFDF38070B4E6E4E466A
:101D36004E464E464F504E18C70B4E184F6E4F9C90
:101D46004CC0D9FF4DC0DAFFDFAE02D04F8E01D0B6
:101D56004F9E4F0E456E000E466E39EC0DF012008A
:101D6600020E6024566E000E6120576E6250010B03
:101D7600586E04EC0CF0030E6024566E000E6120C3
:101D8600576ED8906230010B586E04EC0CF0040EBE
:101D96006024566E000E6120576E6240E8423F0B8B
:101DA600010B586E04EC0CF0050E6024566E000E06
:101DB6006120576E6238E8461F0B010B586E04EC23
:101DC6000CF00001B66FB65112005A0EF66E1F0ED9
:101DD600F76E000EF86E00EE80F010EE36F0090099
:101DE600F5CFEEFFE550E150FAE1DE0EF66E200E7D
:101DF600F76E000EF86E00EE63F010EE0BF00900C1
:101E0600F5CFEEFFE550E150FAE10001CA6BC96B70
:101E1600C86BC76BC66BC56B00EE01F0440EEE6A6D
:101E2600E806FDE16E906E92000190EF0FF020EE55
:101E360006F05650D9265750DA22DFA025EF0FF0CC
:101E460027EF0FF037EF0FF0D59620EE03F0565040
:101E5600D9265750DA22DF50586ED5505818F80B4D
:101E66005818D56E45EF0FF020EE06F05650D926DD
:101E76005750DA22DFB042EF0FF044EF0FF045EF94
:101E86000FF0D5861200000E5C6E000E5D6E565089
:101E96005710D8A451EF0FF053EF0FF057EF0FF094
:101EA600000E5E6E6FEF0FF0D6CF5CF0D7CF5DF011
:101EB6005C505DC05AF05B6A5AC05BF05A6A5A269B
:101EC600000E5B2258C0D9FF59C0DAFF5AC0DEFFA8
:101ED6005BC0DDFF010E5E6E5E50120020EE06F066
:101EE6005650D9265750DA22DFA67CEF0FF07EEF48
:101EF6000FF081EF0FF0D58C8FEF0FF020EE06F08C
:101F06005650D9265750DA22DFB68CEF0FF08EEFF7
:101F16000FF08FEF0FF0D59C120079EC10F0AF0E9A
:101F2600596E000E5A6E9AEC0CF06D0E0001B76FEA
:101F3600000EB86F82EC0DF0AF0E566E000E576EA7
:101F4600430E586E000E596E46EC0FF09FEF0FF0E1
:101F560007EF00F0800F810F820F830F840F890F28
:101F66008A0F8B0F8C0F8D0F920F930F940F950F77
:101F7600960FB8200002DC0B05323A030B131B2325
:101F86002B333BB8200000000002010E6024566E81
:101F9600000E6120576E010E586E04EC0CF0030E15
:101FA600E82EFED700F0010E6024566E000E61206A
:101FB600576E000E586E04EC0CF0626E6250120002
:101FC600010E6024566E000E6120576E010E586E8B
:101FD60004EC0CF0030EE82EFED700F0010E602490
:101FE600566E000E6120576E000E586E04EC0CF013
:101FF600626E62501200F2941650D76E15C0D6FF6C
:1020060013501410D8B40AEF10F00CEF10F018EFBC
:1020160010F002D818EF10F00500FA6E1350FD6E9E
:102026001450FE6EFF6AFA5012001200670E00018D
:10203600BB6F000EBC6FBCEC0AF0A50E0001BF6FB3
:10204600000EC06F16EC0AF01200456EF290455075
:10205600D8A430EF10F032EF10F034EF10F034EF78
:1020660010F01200456EF2904550D8A43DEF10F0E6
:102076003FEF10F041EF10F041EF10F01200456E07
:10208600F2904550D8A44AEF10F04CEF10F04EEF06
:1020960010F04EEF10F01200456EF2904550D8A4A5
:1020A60057EF10F059EF10F05BEF10F05BEF10F008
:1020B60012006D0E4C6E000E4D6E7AEC0EF0120094
:1020C600A1920C50B36E0BC0B2FF12009E9012503C
:1020D600CF6E11C0CEFF120001010101020A121AD1
:0320E600222A02A9
:1020EA009E923BC0CCFF120019EC10F012009D9892
:1020FA0012009E961200A1961200F0921200F09021
:10210A001200F2921200A19012009E9412009E9C5C
:04211A00120012009D
:020000040020DA
:08000000FFFFFFFFFFFFFFFF00
:020000040030CA
:0E000000FF020912FF8181FF0FC00FE00F40C9
:00000001FF
